{
  "contractName": "newContract",
  "abi": [
    {
      "inputs": [],
      "stateMutability": "nonpayable",
      "type": "constructor"
    },
    {
      "anonymous": false,
      "inputs": [
        {
          "indexed": false,
          "internalType": "address",
          "name": "Address",
          "type": "address"
        },
        {
          "indexed": false,
          "internalType": "bool",
          "name": "switchTo",
          "type": "bool"
        }
      ],
      "name": "switchAprroval",
      "type": "event"
    },
    {
      "anonymous": false,
      "inputs": [
        {
          "indexed": false,
          "internalType": "address",
          "name": "to",
          "type": "address"
        },
        {
          "indexed": false,
          "internalType": "address",
          "name": "from",
          "type": "address"
        },
        {
          "indexed": false,
          "internalType": "uint256",
          "name": "amount",
          "type": "uint256"
        }
      ],
      "name": "transfer",
      "type": "event"
    },
    {
      "inputs": [
        {
          "internalType": "address",
          "name": "",
          "type": "address"
        }
      ],
      "name": "balanceOfAdress",
      "outputs": [
        {
          "internalType": "uint256",
          "name": "",
          "type": "uint256"
        }
      ],
      "stateMutability": "view",
      "type": "function"
    },
    {
      "inputs": [],
      "name": "getManufacturer",
      "outputs": [
        {
          "internalType": "address",
          "name": "",
          "type": "address"
        }
      ],
      "stateMutability": "view",
      "type": "function"
    },
    {
      "inputs": [],
      "name": "getRetailer",
      "outputs": [
        {
          "internalType": "address",
          "name": "",
          "type": "address"
        }
      ],
      "stateMutability": "view",
      "type": "function"
    },
    {
      "inputs": [],
      "name": "getCourier",
      "outputs": [
        {
          "internalType": "address",
          "name": "",
          "type": "address"
        }
      ],
      "stateMutability": "view",
      "type": "function"
    },
    {
      "inputs": [],
      "name": "getCourierOffer",
      "outputs": [
        {
          "internalType": "uint256",
          "name": "",
          "type": "uint256"
        }
      ],
      "stateMutability": "view",
      "type": "function"
    },
    {
      "inputs": [],
      "name": "getCourrierPayment",
      "outputs": [
        {
          "internalType": "uint256",
          "name": "",
          "type": "uint256"
        }
      ],
      "stateMutability": "view",
      "type": "function"
    },
    {
      "inputs": [
        {
          "internalType": "uint256",
          "name": "amount",
          "type": "uint256"
        }
      ],
      "name": "setAmount",
      "outputs": [
        {
          "internalType": "uint256",
          "name": "",
          "type": "uint256"
        }
      ],
      "stateMutability": "payable",
      "type": "function"
    },
    {
      "inputs": [],
      "name": "getAmount",
      "outputs": [
        {
          "internalType": "uint256",
          "name": "",
          "type": "uint256"
        }
      ],
      "stateMutability": "view",
      "type": "function"
    },
    {
      "inputs": [
        {
          "internalType": "uint256",
          "name": "amount",
          "type": "uint256"
        }
      ],
      "name": "offerForCourier",
      "outputs": [
        {
          "internalType": "uint256",
          "name": "",
          "type": "uint256"
        }
      ],
      "stateMutability": "payable",
      "type": "function"
    },
    {
      "inputs": [
        {
          "internalType": "address",
          "name": "to",
          "type": "address"
        },
        {
          "internalType": "address",
          "name": "from",
          "type": "address"
        },
        {
          "internalType": "uint256",
          "name": "amount",
          "type": "uint256"
        }
      ],
      "name": "Transfer",
      "outputs": [
        {
          "internalType": "bool",
          "name": "success",
          "type": "bool"
        }
      ],
      "stateMutability": "payable",
      "type": "function"
    },
    {
      "inputs": [
        {
          "internalType": "address",
          "name": "Adress",
          "type": "address"
        }
      ],
      "name": "SwitchAprroval",
      "outputs": [
        {
          "internalType": "bool",
          "name": "success",
          "type": "bool"
        }
      ],
      "stateMutability": "payable",
      "type": "function"
    }
  ],
  "bytecode": "0x608060405234801561001057600080fd5b5033600160000160006101000a81548173ffffffffffffffffffffffffffffffffffffffff021916908373ffffffffffffffffffffffffffffffffffffffff1602179055506000600160000160146101000a81548160ff0219169083151502179055506064600080600160000160009054906101000a900473ffffffffffffffffffffffffffffffffffffffff1673ffffffffffffffffffffffffffffffffffffffff1673ffffffffffffffffffffffffffffffffffffffff16815260200190815260200160002081905550739c01a36cbe2d089d0d9b988dabc15720593aa4f2600260000160006101000a81548173ffffffffffffffffffffffffffffffffffffffff021916908373ffffffffffffffffffffffffffffffffffffffff1602179055506000600260000160146101000a81548160ff0219169083151502179055506064600080600260000160009054906101000a900473ffffffffffffffffffffffffffffffffffffffff1673ffffffffffffffffffffffffffffffffffffffff1673ffffffffffffffffffffffffffffffffffffffff168152602001908152602001600020819055507304f0fa290f51d726d1461b566b914797f5f8870a600360000160006101000a81548173ffffffffffffffffffffffffffffffffffffffff021916908373ffffffffffffffffffffffffffffffffffffffff1602179055506000600360000160146101000a81548160ff0219169083151502179055506064600080600360000160009054906101000a900473ffffffffffffffffffffffffffffffffffffffff1673ffffffffffffffffffffffffffffffffffffffff1673ffffffffffffffffffffffffffffffffffffffff16815260200190815260200160002081905550610b45806102a96000396000f3fe60806040526004361061009c5760003560e01c80638f2b5289116100645780638f2b528914610187578063d321fe29146101c4578063ddf252ad146101ef578063e97a04d31461021f578063f80d1ff01461024a578063fd62d60a146102755761009c565b806304b0cdda146100a15780630ece7af2146100cc578063271f88b4146100fc578063554181b11461012c5780635fc9237a14610157575b600080fd5b3480156100ad57600080fd5b506100b66102a0565b6040516100c391906107c4565b60405180910390f35b6100e660048036038101906100e19190610810565b6102cd565b6040516100f39190610858565b60405180910390f35b610116600480360381019061011191906108a9565b61055b565b60405161012391906108e5565b60405180910390f35b34801561013857600080fd5b5061014161056e565b60405161014e91906108e5565b60405180910390f35b610171600480360381019061016c91906108a9565b610578565b60405161017e91906108e5565b60405180910390f35b34801561019357600080fd5b506101ae60048036038101906101a99190610810565b61058b565b6040516101bb91906108e5565b60405180910390f35b3480156101d057600080fd5b506101d96105a3565b6040516101e691906108e5565b60405180910390f35b61020960048036038101906102049190610900565b6105ad565b6040516102169190610858565b60405180910390f35b34801561022b57600080fd5b5061023461071f565b60405161024191906108e5565b60405180910390f35b34801561025657600080fd5b5061025f610729565b60405161026c91906107c4565b60405180910390f35b34801561028157600080fd5b5061028a610756565b60405161029791906107c4565b60405180910390f35b6000600160000160009054906101000a900473ffffffffffffffffffffffffffffffffffffffff16905090565b6000600360000160009054906101000a900473ffffffffffffffffffffffffffffffffffffffff1673ffffffffffffffffffffffffffffffffffffffff168273ffffffffffffffffffffffffffffffffffffffff161415610402576001600360000160146101000a81548160ff02191690831515021790555060055460048190555061038682600260000160009054906101000a900473ffffffffffffffffffffffffffffffffffffffff1661038161056e565b6105ad565b506103be82600160000160009054906101000a900473ffffffffffffffffffffffffffffffffffffffff166103b96105a3565b6105ad565b507f6a33ea587d01bfd7ffbcd1bb2100a2665d51aa055aa8b6adbb02d6b0209dc8328260016040516103f1929190610953565b60405180910390a160019050610556565b600260000160009054906101000a900473ffffffffffffffffffffffffffffffffffffffff1673ffffffffffffffffffffffffffffffffffffffff168273ffffffffffffffffffffffffffffffffffffffff161415610517576001600260000160146101000a81548160ff0219169083151502179055506001600360000160146101000a81548160ff0219169083151502179055156104d4576104d282600360000160009054906101000a900473ffffffffffffffffffffffffffffffffffffffff166104cd6105a3565b6105ad565b505b7f6a33ea587d01bfd7ffbcd1bb2100a2665d51aa055aa8b6adbb02d6b0209dc832826001604051610506929190610953565b60405180910390a160019050610556565b7f6a33ea587d01bfd7ffbcd1bb2100a2665d51aa055aa8b6adbb02d6b0209dc832826000604051610549929190610953565b60405180910390a1600090505b919050565b6000816006819055506006549050919050565b6000600454905090565b6000816005819055506005549050919050565b60006020528060005260406000206000915090505481565b6000600654905090565b60008060008473ffffffffffffffffffffffffffffffffffffffff1673ffffffffffffffffffffffffffffffffffffffff16815260200190815260200160002054821061062f576040517f08c379a0000000000000000000000000000000000000000000000000000000008152600401610626906109ff565b60405180910390fd5b816000808573ffffffffffffffffffffffffffffffffffffffff1673ffffffffffffffffffffffffffffffffffffffff168152602001908152602001600020600082825461067d9190610a4e565b92505081905550816000808673ffffffffffffffffffffffffffffffffffffffff1673ffffffffffffffffffffffffffffffffffffffff16815260200190815260200160002060008282546106d29190610a82565b925050819055507fbeabacc8ffedac16e9a60acdb2ca743d80c2ebb44977a93fa8e483c74d2b35a884848460405161070c93929190610ad8565b60405180910390a1600190509392505050565b6000600554905090565b6000600260000160009054906101000a900473ffffffffffffffffffffffffffffffffffffffff16905090565b6000600360000160009054906101000a900473ffffffffffffffffffffffffffffffffffffffff16905090565b600073ffffffffffffffffffffffffffffffffffffffff82169050919050565b60006107ae82610783565b9050919050565b6107be816107a3565b82525050565b60006020820190506107d960008301846107b5565b92915050565b600080fd5b6107ed816107a3565b81146107f857600080fd5b50565b60008135905061080a816107e4565b92915050565b600060208284031215610826576108256107df565b5b6000610834848285016107fb565b91505092915050565b60008115159050919050565b6108528161083d565b82525050565b600060208201905061086d6000830184610849565b92915050565b6000819050919050565b61088681610873565b811461089157600080fd5b50565b6000813590506108a38161087d565b92915050565b6000602082840312156108bf576108be6107df565b5b60006108cd84828501610894565b91505092915050565b6108df81610873565b82525050565b60006020820190506108fa60008301846108d6565b92915050565b600080600060608486031215610919576109186107df565b5b6000610927868287016107fb565b9350506020610938868287016107fb565b925050604061094986828701610894565b9150509250925092565b600060408201905061096860008301856107b5565b6109756020830184610849565b9392505050565b600082825260208201905092915050565b7f76616c75652065786365656473207468652062616c616e6365206f662074686560008201527f2073656e64657200000000000000000000000000000000000000000000000000602082015250565b60006109e960278361097c565b91506109f48261098d565b604082019050919050565b60006020820190508181036000830152610a18816109dc565b9050919050565b7f4e487b7100000000000000000000000000000000000000000000000000000000600052601160045260246000fd5b6000610a5982610873565b9150610a6483610873565b925082821015610a7757610a76610a1f565b5b828203905092915050565b6000610a8d82610873565b9150610a9883610873565b9250827fffffffffffffffffffffffffffffffffffffffffffffffffffffffffffffffff03821115610acd57610acc610a1f565b5b828201905092915050565b6000606082019050610aed60008301866107b5565b610afa60208301856107b5565b610b0760408301846108d6565b94935050505056fea264697066735822122057f430c64bf1f8bb1c0a0cf270323b1dc3123a46d91b3c70324963b436edb14564736f6c634300080a0033",
  "immutableReferences": {},
  "source": "// SPDX-License-Identifier: GPL-3.0\npragma solidity >=0.7.0 <0.9.0;\n\ncontract newContract {\n    mapping (address => uint256) public balanceOfAdress;\n    struct member{\n        address key;\n        bool agreement;\n    }\n\n    member private manufacturer;\n    member private retailer;\n    member private courier;\n\n    uint courierPayment;\n    uint courierOffer;\n    uint amountAgreedUpon;\n\n    constructor (){\n        manufacturer.key = msg.sender;\n        manufacturer.agreement = false;\n        balanceOfAdress[manufacturer.key] = 100;\n\n        retailer.key = 0x9C01A36cbe2d089d0D9B988dabc15720593Aa4F2;\n        retailer.agreement = false;\n        balanceOfAdress[retailer.key] = 100;\n\n        courier.key = 0x04F0fa290F51d726D1461B566B914797f5f8870a;\n        courier.agreement = false;\n        balanceOfAdress[courier.key] = 100;\n\n    }\n\n     function getManufacturer() public view returns(address) {\n        return manufacturer.key;\n    }\n\n    function getRetailer() public view returns(address) {\n        return retailer.key;\n    }\n    \n    function getCourier() public view returns(address) {\n        return courier.key;\n    }\n\n    function getCourierOffer() public view returns (uint){\n        return courierOffer;\n    }\n\n    function getCourrierPayment() public view returns (uint){\n        return courierPayment;\n    }\n\n    function setAmount(uint amount) public payable returns (uint){\n        amountAgreedUpon = amount;\n        return amountAgreedUpon;\n    }\n\n    function getAmount() public view returns (uint){\n        return amountAgreedUpon;\n    }\n\n\n    event transfer(address to, address from, uint amount);\n    event switchAprroval(address Address, bool switchTo);\n\n    function offerForCourier(uint amount) public payable returns (uint){\n        courierOffer = amount;\n        return courierOffer;\n    }\n    \n    function Transfer(address to, address from, uint amount) public payable returns (bool success){\n        require(amount < balanceOfAdress[from], \"value exceeds the balance of the sender\");\n        balanceOfAdress[from] -= amount;\n        balanceOfAdress[to] += amount;\n        emit transfer(to, from, amount);\n        return true;\n    }\n\n    function SwitchAprroval(address Adress) public payable returns (bool success){\n        if(Adress == courier.key){\n            courier.agreement = true;\n            courierPayment = courierOffer;\n            Transfer(Adress, retailer.key, getCourrierPayment());\n            Transfer(Adress, manufacturer.key, getAmount());\n            emit switchAprroval(Adress, true);\n            return true;\n        }\n        else if (Adress == retailer.key){\n            retailer.agreement = true;\n            if(courier.agreement = true){\n            Transfer(Adress, courier.key, getAmount());\n            }\n            emit switchAprroval(Adress, true);\n            return true;\n        }\n        else {\n            emit switchAprroval(Adress, false);\n            return false;\n        }\n    }\n\n}",
  "sourcePath": "C:\\Users\\juliu\\newContract\\contracts\\newContract.sol",
  "compiler": {
    "name": "solc",
    "version": "0.8.10+commit.fc410830.Emscripten.clang"
  },
  "schemaVersion": "3.4.3",
  "updatedAt": "2021-12-16T23:23:14.929Z",
  "devdoc": {
    "kind": "dev",
    "methods": {},
    "version": 1
  },
  "userdoc": {
    "kind": "user",
    "methods": {},
    "version": 1
  }
}